:020000040800F2
:10000000A80600209D010008691C0008611C00086A
:10001000651C0008450300080121000800000000DD
:10002000000000000000000000000000711C00083B
:1000300061030008000000006D1C0008751C00082A
:10004000B7010008B7010008B7010008B7010008B0
:10005000B7010008B7010008B7010008B7010008A0
:10006000B7010008B7010008B7010008B701000890
:10007000B7010008B7010008B7010008B701000880
:1000800049030008B7010008B7010008B7010008DC
:10009000B7010008B7010008B7010008B701000860
:1000A000B7010008D11C0008B7010008B70100081B
:1000B000B7010008B7010008B7010008B701000840
:1000C000B7010008B7010008B7010008B701000830
:1000D000B7010008B7010008B7010008B701000820
:1000E000B7010008B7010008B7010008B701000810
:1000F000B7010008B7010008B7010008B701000800
:10010000B7010008B7010008B7010008B7010008EF
:10011000B7010008B7010008B7010008B7010008DF
:1001200055030008B7010008B7010008B70100082F
:10013000B7010008B7010008B7010008B7010008BF
:10014000B7010008B7010008B7010008B7010008AF
:10015000B7010008B7010008B7010008B70100089F
:10016000B7010008B7010008B7010008B70100088F
:10017000B7010008B7010008B7010008000000003F
:10018000B7010008B7010008DFF80CD000F086F8CE
:100190000048004705210008A806002006488047BF
:1001A00006480047FEE7FEE7FEE7FEE7FEE7FEE75C
:1001B000FEE7FEE7FEE7FEE7791C0008890100087C
:1001C0002DE9F05F0546002092469B46884606468C
:1001D000814640241BE0284641464746224600F01F
:1001E0004CF853465A46C01A914110D3114618464E
:1001F000224600F033F82D1A67EB01084F462246DD
:100200000120002100F02AF817EB00094E41201EC2
:10021000A4F10104DFDC484631462A464346BDE8E6
:10022000F09F421C10F8011B0029FBD1801A704777
:1002300030B50B46014600202022012409E021FAB6
:1002400002F59D4205D303FA02F5491B04FA02F5B3
:100250002844151EA2F10102F1DC30BD202A04DB86
:10026000203A00FA02F1002070479140C2F12003C9
:1002700020FA03F3194390407047202A04DB203A08
:1002800021FA02F00021704721FA02F3D040C2F1B6
:10029000200291400843194670470000064C074D64
:1002A00006E0E06840F0010394E807009847103446
:1002B000AC42F6D3FFF76CFFF826000818270008B9
:1002C0000146806B036C026C13F0500F07D0D2060E
:1002D00048BF00F02FB9806BC26C0846104742F44B
:1002E0000071016401688A6812F0405F1AD1027ED1
:1002F000002A18BF00F0D0B8CA6A12F4700F02D0FA
:100300008A6852050ED44A6822F020024A60016CC5
:1003100021F480710164016CC9045EBF016C41F07D
:100320000101016400F0B8B8806B40210164416CA8
:1003300041F00401416400F0FDB80000806B00F062
:10034000F7B80000FEE7000040F2C010C2F2000063
:1003500000F0B4BA40F26010C2F2000000F0AEBA91
:10036000704700007047000070B581B00022009215
:1003700090F83C20012A03D10221084601B070BD4B
:10038000012280F83C20D1F800E01FFA8EFCBEF17B
:100390000A0F4FEA4C0212FA8EF204D303681E3A97
:1003A00003F10C0402E0036803F11004072526683A
:1003B000954026EA050525608D6805FA02F2256854
:1003C0002A4322604A68062A05D802EB820203F11A
:1003D0003401053A0BE002EB82040C2A87BF03F1DB
:1003E0002C01A4F1410203F13001A4F123021F24E6
:1003F0000D6894400CFA02F225EA04040C600E68C1
:1004000032430A6042F20431C4F20101A1F54172A3
:1004100093423AD1BEF1120F04D10A6842F480022D
:100420000A6032E02EF00102102A2ED10A68BEF1D5
:10043000100F42F400020A6027D140F208014DF685
:100440008362C2F20001C4F21B320968A1FB0212EE
:10045000910C01EB810149000091009929B914E048
:10046000009901390091009979B100990139009101
:10047000009951B1009901390091009929B1009971
:100480000139009100990029EAD1002180F83C103F
:10049000084601B070BD00002DE9F04F81B040F278
:1004A0001811C2F2000188423ED140F21008C2F297
:1004B0000008D8F80400022836D140F24E0A40F273
:1004C000B20B42F2F26940F2602642F2F067002578
:1004D0000DF10104C2F2000AC2F2000BC0F60009DD
:1004E000C2F20006C0F600073AF815302046032194
:1004F0004A462BF8153001F017FF2046FFF791FE12
:1005000082B2304621464FF47A7301F0CBFA30467E
:10051000394601224FF47A7301F0C4FA0135322DC5
:10052000E2D1012088F8000001B0BDE8F08F0000A2
:100530007047000070470000002804BF012070478A
:1005400010B50446006CE0B3206CC00643D4206CA8
:1005500041F202110123C0F6007388430230206487
:1005600042F20430C4F20100016821F4403101601C
:1005700061680268114301602068416821F480715C
:1005800041602169426842EA01214160416821F0ED
:1005900040714160A168426811434160816821F463
:1005A00000618160E168826811438160A16A8268AC
:1005B00022F0706299428260826811D122F040512B
:1005C00017E0204600F062F8002084F83C006064E8
:1005D000206CC006BBD50120002184F83C1010BD62
:1005E00011438160816821F040518160E16A826835
:1005F00011438160816821F002018160217E82685F
:1006000042EA4101816094F82020416882B141F4BE
:1006100000614EF200024160CFF6FF72416821F4A2
:1006200060414160616A02EB41314268114301E07F
:1006300021F4006141600022C16ACFF6F07221F41A
:100640007001C162E16902EB0151C26A1143C162EA
:10065000816821F40071816094F83010826842EA68
:1006600041218160816821F48061816061698268D3
:1006700042EA81210122816000206064216C62F3E2
:1006800001012164002184F83C1010BD70B586B0D2
:10069000002604460596CDE90366CDE901660168AA
:1006A00042F20000C4F20100814201D006B070BDE8
:1006B00043F63001009600F56040C4F202014A6939
:1006C00042F480724A614A6902F480720092009A90
:1006D00000960A6842F001020A60096801F001010F
:1006E0000091009903960321CDE9011101A900F0C1
:1006F000D1FA40F260154FF440304FF4807C4FF453
:1007000000514FF400624FF48063C2F20005C5E966
:10071000080646F21040C4F20200C5E90006284669
:10072000C5E90266C5E90432C5E9061C00F0A8F96E
:10073000002818BFFFF716FEA563AC6306B070BDB6
:10074000B0B582B004460020019094F83C00012826
:1007500002BF022002B0B0BD01200D46964684F8CB
:100760003C0021688868C0072BD188684DF68363F8
:10077000C4F21B3340F00100886040F20800C2F26E
:1007800000000068A0FB0303980C00EB4000019000
:10079000019830B915E000BF019801380190019827
:1007A00078B1019801380190019850B10198013851
:1007B0000190019828B10198013801900198002812
:1007C000EAD18868C0076ED0206C40F2017398436C
:1007D00000F5807020644868400504D5206C012332
:1007E00063F30D302064206C4FF0000C40F229338D
:1007F00040F2C122C0F60003C0F60002C0044FF070
:10080000000044BF606C20F0060084F83CC06064C7
:10081000A06BC36440F23D33C0F60003C0E90F2370
:100820006FF0220273460A604A6842F080624A60B2
:100830008A6842F480728A604C312A4600F0D4F90A
:1008400042F20801C4F20101D1F8FC322068A1F1A2
:100850000802DB060CD0904225D1086810F0405FFA
:1008600021D1086840F080400860002002B0B0BD8F
:10087000904214D042F20022C4F2010290420AD007
:1008800042F20012C4F2010290420CD1D1F8FC12E3
:10089000C90608D103E0D1F8FC12C90603D4816867
:1008A00011F0405F02D0002002B0B0BD816841F07D
:1008B00080418160002002B0B0BD0000F0B581B081
:1008C0000446002048F2B5130821009040F20800C9
:1008D000C1F64E33C2F200000268D4E916603768F0
:1008E0008140A2FB032539420CD0226813685B07C4
:1008F00008D5136823F004031360B160616D41F003
:100900000101616501218140394208D022685269A4
:10091000120604D5B160616D41F0020161650421E8
:100920008140394208D022681268920704D5B1602C
:10093000616D41F00401616510218140394217D099
:1009400020680268120713D5B1600268016852037B
:1009500008D4C9055EBF016821F008010160216C5F
:1009600021B905E0080344D4216C09B12046884729
:10097000E16D202000FA01F23A4247D02068036876
:10098000DB0643D5B26094F835300268052B1ED1E2
:1009900022F016020260426922F080024261226C5B
:1009A0000AB9A26C1AB1026822F0080202603F2064
:1009B0008840B060012084F83500002084F83400BD
:1009C000216D00295AD02046884701B0F0BD01684A
:1009D000520312D4C90515D4016821F01001016039
:1009E000012084F83500002084F83400E16B59B907
:1009F0000CE0A16C0029B9D1BAE7080302D4616CFC
:100A000011B903E0E16B09B120468847606DA8B3D6
:100A1000606DC0072ED00521A80A84F83510216822
:100A20000A6822F001020A60009A013282420092B2
:100A30001AD80A68D20717D0009A0132824200926F
:100A400012D80A68D2070FD0009A0132824200926F
:100A50000AD80A68D20707D0009A0132824200926F
:100A600002D80A68D207DFD1012084F835000020BF
:100A700084F83400E16C09B12046884701B0F0BD2C
:100A80002DE9F041044600F0E7F9002C04BF0120F5
:100A9000BDE8F0810546022084F83500002084F886
:100AA00034002168086820F0010008600868C00769
:100AB00004D110E021680868C0070CD000F0CCF920
:100AC000401B0528F6D9032520230320636584F8FD
:100AD0003550BDE8F08148F23F020868D4E901359D
:100AE00004F10C08CFF2100200EA020C98E8C101F0
:100AF000D4E9072E43EA0C032B431843636A3043BF
:100B00003843042B40EA080040EA020040EA0E02A3
:100B10001DD1D4E90BE042EA0E02BEF1000F40EA1B
:100B2000020008604869A26A20F0030040EA02005F
:100B300040F0040C11D0B8F5005F34D0B8F1000FCC
:100B400042D1022A43D0012A37D032B93FE00A60AD
:100B5000486920F0070040EA030C6FF00F0040F2F4
:100B6000FF32C1F814C00023012550FA81F09143EF
:100B70004AF6AB22CAF6AA225F2888BF0431A165D3
:100B8000A0FB0202100942F2E862C0F60002105C0B
:100B90003F22E06502FA00F088600020636584F877
:100BA0003550BDE8F081032AD7D801254023012024
:100BB000DFE802F0020D0203F0E7AEF1C070B0FA18
:100BC00080F0400938B9C8E7032A04D3C5D1CEF371
:100BD00000600028C1D0012540230120636584F80E
:100BE0003550BDE8F0810000B0B590F834C0BCF1DC
:100BF000010F4DD04FF0010CD0F858E080F834C010
:100C000090F835C0BCF1010F3FD14FF0020C80F8D5
:100C100035C04FF0000CC0F854C0D0F800C0846854
:100C2000DCF80050402C25F48025CCF80050CCF89E
:100C300004300B4608BF1346CCF8083008BF0A46FC
:100C4000CCF80C20C16D3F2202FA01F1CEF8081059
:100C5000DCF8001041F01601CCF80010DCF814109C
:100C600041F08001CCF81410006C00281EBFDCF8A5
:100C7000000040F00800CCF80000DCF8000040F074
:100C80000100CCF800000020B0BD002180F8341035
:100C90000220B0BD2DE9F04F82B041F6004343F68B
:100CA000004B08224FF0010A00264FF0000CC4F25E
:100CB0000203C4F2010B984200F13E4308BF072231
:100CC00003F1FF734FEAB327072F4FF0000738BF38
:100CD0004FEAB32200920A680AFA0CF812EA080FE7
:100CE00010D100BF0CF1010C02370436BCF1100F1B
:100CF00004BF02B0BDE8F08F0A680AFA0CF812EAE5
:100D0000080FEFD0D1F804E04EF01002122A12D1F1
:100D100006F01C020F2303FA02F46FF0030303EA48
:100D20005C0505442B6AA3430C6904FA02F21A43DA
:100D30002A62D1F804E0032304680EF00302BEF136
:100D4000120F03FA07F302FA07F224EA03046FEA28
:100D5000030942EA0402026014D80AFA0EF212F001
:100D6000061F0FD08268CB6802EA0902BB401A4313
:100D70008260CEF30012436802FA0CF223EA080301
:100D80001A434260C2688B6802EA0902BB401A43F8
:100D9000C2605FEACE02A5D5002206F00C050F2442
:100DA000019243F64402AC40C4F2020213461268B8
:100DB00042F480421A601A6802F4804201922CF0D8
:100DC0000302019B5A444FF60843CFF6FF739E4639
:100DD000D358A343009C04FA05F52B4342F80E3088
:100DE000DBF800204D6842EA0803EC0358BF22EA12
:100DF0000803CBF80030AC03DBF8042042EA080318
:100E000058BF22EA0803CBF80430EC02DBF80820D4
:100E100042EA080358BF22EA080343F60C42CBF823
:100E20000830AD02C4F201021446126842EA080317
:100E300058BF22EA0803236054E7000042690A40D1
:100E40008A4208BF0904816170470000002A08BF78
:100E5000090481617047000040F2A020C2F2000046
:100E60000068704740F2000040F2A021C2F200008A
:100E7000C2F2000100780A68104408607047000060
:100E800080B543F60040C4F20200016841F40071ED
:100E90000160016841F480610160016841F4807182
:100EA0000160032000F084F8002000F005F800F055
:100EB00025F8002080BD000070B540F20006044611
:100EC0004FF47A71C2F200063078B1FBF0F040F2D4
:100ED0000801C2F200010968B1FBF0F000F000FB6C
:100EE00001250F2C08D838B94FF0FF3021460022D9
:100EF000002500F02FF87460284670BD82B043F6DC
:100F0000400100200190C4F202014A6842F480428C
:100F10004A604A6802F480420192019A009008688F
:100F200040F080500860086800F080500090009801
:100F300002B070470028B8BF704700F01F010122BF
:100F4000400902FA01F14EF20012CEF2000242F81C
:100F50002010704710B500F00F034EF60C5E00F144
:100F6000604CB0F1FF3FA3F10403CEF2000E7344D6
:100F700003F10C04C8BF0CF56444DEF800004FF028
:100F8000FF3CC0F30220C31E80F0070038BF0023DF
:100F9000042828BF04200CFA00F021EA00000CFA13
:100FA00003F1984022EA010108430001207010BDBE
:100FB0004EF60C514FF6FF03CEF200010A681A40BC
:100FC00060F30A2242F0806040F0FD7008607047D4
:100FD0002DE9F041002800F0A08043F608080446FF
:100FE0000D46C4F20208D8F8F80300F00F0088425A
:100FF00008D288F8F853D8F8F80300F00F00A84298
:1010000040F08B802068810717D5410742BFD8F890
:10101000001041F4E051C8F80010010742BFD8F8B1
:10102000001041F46041C8F80010D8F80010A26820
:1010300021F0F0011143C8F80010C00731D06068FA
:10104000811E022904D258F8081C890165D50AE0DE
:10105000012804D158F8081C89035ED503E058F82C
:10106000081C890759D5D8F8001021F0030108435E
:10107000C8F80000FFF7F0FE064641F2883700BFCF
:10108000D8F80000616800F00C00B0EB810F08D0C8
:10109000FFF7E2FE801BB842F2D903242046BDE8E8
:1010A000F081D8F8F80300F00F00A84207D988F8BB
:1010B000F853D8F8F80300F00F00A8422DD12068AB
:1010C000410707D5D8F80010E26821F4E051114338
:1010D000C8F80010000708D5D8F80000216920F4EE
:1010E000604040EAC100C8F8000000F043F8D8F8BA
:1010F000001042F2D0620024C0F60002C1F30311D6
:10110000515CC84040F20801C2F2000108600020B2
:10111000FFF7D2FE2046BDE8F08101242046BDE85D
:10112000F081000040F2080043F6080142F2E0625C
:10113000C2F20000C4F20201C0F6000200680968B1
:10114000C1F38221515CC8407047000040F20800A2
:1011500043F6080142F2E062C2F20000C4F202016A
:10116000C0F6000200680968C1F34231515CC84012
:101170007047000010B543F60404C4F2020460682E
:1011800000F00C0142F20040C0F2F400082907D040
:10119000042918BF10BD41F20020C0F27A0010BD32
:1011A0002168236801F03F0221685B02C1F38811C6
:1011B00005D4A1FB00010023FFF702F806E041F28D
:1011C0000020C0F27A004843B0FBF2F0216802220E
:1011D000C1F3014102EB4101B0FBF1F010BD000091
:1011E0002DE9F04182B0002800F018810446007813
:1011F00043F60006C4F20206C0072FD0B06800F024
:101200000C00042823D0B06800F00C00082802D19C
:10121000706840021BD46768B7F5803F07D030681C
:10122000B7F5A02F40F01E8140F480203060306878
:1012300040F480303060FFF70FFE054630688003D1
:101240000CD4FFF709FE401B6428F7D9AAE03068E8
:10125000800303D56068002800F0E08020788007D4
:1012600030D5B06810F00C0F07D0B06800F00C005B
:1012700008280AD17068400207D4306880071AD560
:10128000E068012840F0CA8015E0E1680020C4F25F
:101290004720002900F08A8001210160FFF7DCFD72
:1012A000054600BF3068800705D4FFF7D5FD401B19
:1012B0000228F7D976E03068216920F0F80040EA8A
:1012C000C10030602078000725D5606988B1002012
:1012D0000121C4F24720C0F8801EFFF7BDFD05467E
:1012E000706F800717D4FFF7B7FD401B0228F7D9AE
:1012F00058E000200021C4F24720C0F8801EFFF70C
:10130000ABFD0546706F800705D5FFF7A5FD401BB7
:101310000228F7D946E02078400777D5306C4FF0A7
:101320000008C0000CD4CDF804804FF00108306CE8
:1013300040F080503064306C00F080500190019893
:1013400047F20007C4F200073868C0050FD43868B8
:1013500040F480703860FFF77FFD05463868C005AF
:1013600005D4FFF779FD401B0228F7D91AE0A768DA
:10137000012F05D0306F052F29D140F004003067D0
:10138000306F40F001003067FFF766FD054641F21F
:10139000883700BF306F800731D4FFF75DFD401BF9
:1013A000B842F7D9032002B0BDE8F0810021016006
:1013B000FFF752FD054600BF306880077FF582AF1A
:1013C000FFF74AFD411B03200229F5D981E020F0F7
:1013D00001003067306F20F004003067FFF73CFDFC
:1013E0000546002FD3D141F28837306F800706D5EC
:1013F000FFF732FD411B0320B942F6D969E0B8F18D
:10140000000F1EBF306C20F080503064A769002FA1
:1014100062D0B06800F00C00082803D1012002B0AF
:10142000BDE8F08140F200080020C4F24728C8F867
:101430006000FFF711FD0546022F09D130688001D9
:1014400028D5FFF709FD411B03200229F6D940E00A
:101450003068800140D5FFF7FFFC411B03200329C2
:10146000F6D336E020F480303060306820F48020FD
:101470003060FFF7F1FC0546002F7FF4DFAE3068E7
:1014800080037FF5EBAEFFF7E7FC411B03206429E7
:10149000F5D91EE004F11C078FCF0843D90340EAB9
:1014A00082104FF6FF72914340EA0760A1F5803148
:1014B000084370600120C8F86000FFF7CDFC0446C7
:1014C0003068800108D4FFF7C7FC011B0320022904
:1014D000F6D902B0BDE8F081002002B0BDE8F0818D
:1014E000411E0020B0EB116F1CBF012070474EF26F
:1014F0001002F023CEF2000251604EF62351CEF2DC
:1015000000010B7007219060116070477047000068
:101510007047000090F83C300222012B19D010B522
:1015200080F83D200268D2F804E0D2F808C0D1E982
:1015300000342EF07001194351602CF080012143DA
:1015400091600022012180F83C2080F83D10BDE828
:101550001040104670470000002804BF012070476B
:1015600010B5044690F83D0028B9002084F83C00EE
:10157000204600F00DF80220211D84F83D0020686F
:1015800000F0ACFB012084F83D00002010BD0000FD
:1015900000210068C4F20101884218BF704780B57D
:1015A00082B000200022019043F64400C4F2020001
:1015B000016841F0010101600021006800F00100B4
:1015C000019001981920FFF7C5FC192002B0BDE871
:1015D0008040FFF7AFBC00000068C16841F0010126
:1015E000C160816801F0070106291EBF016841F052
:1015F000010101600020704790F83C300222012B6D
:1016000000F0BF8080B580F83D20012280F83C20AA
:101610004FF67772D0F800C0DCF8083023EA0202F7
:10162000CCF808200B683F2B1BDD5F2B1FDD602BE8
:101630004DD0B3F5005F69D0702B40F09A80D1E9AE
:101640000123C9681A4342EA0121DCF8082022F488
:101650007F421143CCF80810DCF8081041F0770104
:1016600085E01F2B27DC53B3102B28D081E0402BC3
:101670005ED0502B7DD1D1F804E0C968DCF8203071
:10168000DCF8202022F00102CCF82020DCF8182021
:1016900022F0F00242EA0111CCF8181023F00A01FE
:1016A00041EA0E01CCF82010DCF8081041F0570197
:1016B00021F020015BE0202B01D0302B59D1DCF848
:1016C000081021F07001194341F007014FE04A680A
:1016D000C968DCF8203023F01003CCF82030DCF8A7
:1016E000183023F4704343EA0131DCF82030CCF8A1
:1016F000181023F0A00141EA0211CCF82010DCF808
:10170000081041F0670121F0100130E0D1E9012318
:10171000C9681A4342EA0121DCF8082022F47F421A
:101720001143CCF80810DCF8081041F480411EE0A9
:10173000D1F804E0C968DCF82030DCF8202022F081
:101740000102CCF82020DCF8182022F0F00242EA56
:101750000111CCF8181023F00A0141EA0E01CCF86F
:101760002010DCF8081041F0470121F03001CCF8DE
:1017700008100022012180F83C2080F83D10BDE8CF
:1017800080401046704700007047000010B50446C6
:1017900000680169890744BFC1685FEA81713BD471
:1017A0000169490744BFC1685FEA417150D40169CA
:1017B000090744BFC1685FEA017166D40169C906BF
:1017C00044BFC1685FEAC1617CD40169C9071CBF1D
:1017D000C1685FEAC17140F093800169090644BFA6
:1017E000C1685FEA016100F19A800169490644BF5E
:1017F000C1685FEA416100F1A1800169890646BFC5
:10180000C1685FEA816110BD6FF02001016120466F
:10181000BDE81040FFF77CBE6FF0020101610121BD
:1018200021778069800703D02046FFF7ADFF05E0F0
:10183000204600F08BF8204600F08AF80020207740
:1018400020680169490744BFC1685FEA4171AED5AC
:101850006FF00401016102212177806910F4407F5B
:1018600003D02046FFF790FF05E0204600F06EF819
:10187000204600F06DF800202077206801690907F4
:1018800044BFC1685FEA017198D56FF0080101613A
:1018900004212177C069800703D02046FFF774FF39
:1018A00005E0204600F052F8204600F051F80020F4
:1018B000207720680169C90644BFC1685FEAC16139
:1018C0007FF583AF6FF01001016108212177C069B6
:1018D00010F4407F03D02046FFF756FF05E0204676
:1018E00000F034F8204600F033F80020207720681C
:1018F0000169C9071CBFC1685FEAC1713FF46DAFE0
:101900006FF001010161204600F024F820680169B0
:10191000090644BFC1685FEA01617FF566AF6FF0F9
:10192000800101612046FFF7F1FD20680169490649
:1019300044BFC1685FEA41617FF55FAF6FF040016E
:101940000161204600F022F8206856E77047000049
:101950007047000010B500240068C4F20104A042E2
:1019600018BF10BD40F2602007A101224FF47A7326
:10197000C2F2000000F096F804F586304FF4805172
:10198000BDE81040FFF75ABA2F0000007047000072
:10199000002804BF0120704710B5044690F83900B4
:1019A00028B9002084F83800204600F021F82420CF
:1019B00084F839002068C16821F40051C1602046D4
:1019C00000F02CFA2068016921F49041016141691D
:1019D00021F02A014161C16841F40051C160002039
:1019E0002021E06384F8391084F83A1010BD00001B
:1019F00070B586B0002604460596CDE90366CDE9AC
:101A00000166016844F20040C4F20000814201D046
:101A100006B070BD43F63001009600F5DE30C4F22A
:101A200002010A6942F400320A610A6902F40032D2
:101A30000092009A00960A6842F001020A60096862
:101A400001F0010100910099072105910321049102
:101A500001210391022102910C21019101A9FFF7BB
:101A600019F940F2C01546F288024FF480604FF039
:101A70000061C2F20005C4F20202C5E90866C5E9C8
:101A80000021C5E90266C5E904062846C5E90666DF
:101A9000FEF7F6FF002818BFFEF764FC6563AC6331
:101AA00006B070BD2DE9F047044690F839002028B3
:101AB0000DD10F460120002900F0B9801646002AFA
:101AC00008BFBDE8F08794F83800012802D1022051
:101AD000BDE8F08700201D46E063012084F838004F
:101AE000212084F83900FFF7B7F9E684A684804600
:101AF000E08C002800F091802068691C46D04FF0EF
:101B0000200A4FF0000900BFE18C0139E184A6688A
:101B1000016809060AD4EDB1FFF79EF9A0EB0801B0
:101B20002068A94216D801680906F5D50021B6F546
:101B3000805F21D1002940F08F8039886FF35F21C9
:101B400041602169002914BF01370237E18C002967
:101B5000DAD143E0C16821F4D071C160416921F05C
:101B600001014161012184F839A084F8389084F89A
:101B70003AA0B6F5805FDDD000296DD117F8011BC2
:101B80004160E18C0029BFD128E000BFE18C013920
:101B9000E184A168026812065FBF02685FEA026220
:101BA00002685FEA026203D402681206F2D500BF3F
:101BB000B1F5805F0CD139886FF35F2141602169F5
:101BC00000290CBF02370137E18C0029DED105E086
:101BD00017F8011B4160E18C0029D7D10168490643
:101BE0001FD435B3691C0DD10168490619D40168A9
:101BF00049065CBF01685FEA416112D40168490689
:101C0000F2D50EE0FFF728F9A0EB08012068A94201
:101C10000FD800684006F5D503E020680168490642
:101C2000DFD50020202184F8380084F83910BDE881
:101C3000F087C16821F4D071C160416921F00101D0
:101C400041612020002184F8390084F8381084F89C
:101C50003A000320BDE8F0870320BDE8F0870000CC
:101C6000FEE70000FEE7000070470000704700003C
:101C700070470000FFF7F6B84EF688504FF0000CA2
:101C8000CEF20000016841F47001016043F60001EA
:101C9000C4F202010A6842F001020A60C1F808C0F9
:101CA0004FF6FF720B68CFF6F6621A400A6043F2F5
:101CB0001002C2F200424A600A6822F480220A60DE
:101CC000C1F80CC04FF0006140F8801C7047000064
:101CD00040F22020C2F20000FFF758BD40F6FF3C62
:101CE0000268C4F2000C604526DCB0F1804F34D0AD
:101CF00040F20043C4F2000398422ED040F60003A5
:101D0000C4F20003984228D041F6FF73C4F20003E6
:101D100098422CDC604542DCB0F1804F64D040F248
:101D20000043C4F2000398425ED040F60003C4F2C0
:101D30000003984258D05BE040F60043C4F2000331
:101D400098420AD040F20043C4F20103984204D002
:101D50000023C4F201039842D6D14B6822F07002EE
:101D60001A4341F6FF73C4F200039842D2DD43F6F2
:101D7000FF73C4F20103984224DC42F20003C4F270
:101D80000003984230D00023C4F2010398422BD0C4
:101D900040F20043C4F20103984225D028E040F607
:101DA0000043C4F2000398421ED041F60003C4F27F
:101DB0000003984218D041F60043C4F20003984251
:101DC00012D015E044F20003C4F2010398420BD094
:101DD00044F60003C4F20103984205D044F20043E4
:101DE000C4F20103984203D1CB6822F440721A4333
:101DF0004B6922F080021A4340F200430260C4F2B1
:101E000001038A68C2620A68826240F480629A4270
:101E100004BF096901630121416170472DE9F04365
:101E200081B00446006849F20C650169E26821F45A
:101E3000405111430161A168D4E90423E769C668F0
:101E40001143AE43B7F5004F41EA030141EA0701F0
:101E500041EA0601C1604169A26921F4407141EA89
:101E60000201416141F2004140F48060C4F201018D
:101E70004DD1884240F09880FFF768F9D4F804808B
:101E80008146FFF763F965680646FFF75FF9616809
:101E9000192778434900B0FBF1F048F21F51C5F211
:101EA000EB11A0FB01235A09642302FB130206FB7A
:101EB00007F36E00B3FBF6F3181A4FEA4803104419
:101EC000322202EBC000A0FB01024FF4F87000EADE
:101ED000121009FB07F2B2FBF3F2A2FB01126FF042
:101EE0000F0101EA520100EB0108FFF72FF96168C9
:101EF00078434900B0FBF1F6FFF728F961687843B1
:101F0000072203234900B0FBF1F0311AE0E08842D8
:101F100040F09580FFF71AF9D4F804808146FFF766
:101F200015F965680646FFF711F9616819277843C6
:101F30008900B0FBF1F048F21F51C5F2EB11A0FB94
:101F400001235A09642302FB130206FB07F3AE00C8
:101F5000B3FBF6F3181A4FEA88031044322202EB5F
:101F60000010A0FB0102F02000EA521009FB07F26A
:101F7000B2FBF3F2A2FB01126FF00F0101EA520172
:101F800000EB0108FFF7E2F8616878438900B0FBD5
:101F9000F1F6FFF7DBF8616878430F22042389002C
:101FA000B0FBF1F0311A93E0FFF7BCF8D4F80480ED
:101FB0008146FFF7B7F865680646FFF7B3F8616832
:101FC000192778434900B0FBF1F048F21F51C5F2E0
:101FD000EB11A0FB01235A09642302FB130206FB49
:101FE00007F36E00B3FBF6F3181A4FEA48031044E8
:101FF000322202EBC000A0FB01024FF4F87000EAAD
:10200000121009FB07F2B2FBF3F2A2FB01126FF010
:102010000F0101EA520100EB0108FFF783F8616844
:1020200078434900B0FBF1F6FFF77CF8616878432C
:10203000072203234900B0FBF1F0311A48E0FFF713
:1020400071F8D4F804808146FFF76CF8656806469D
:10205000FFF768F86168192778438900B0FBF1F051
:1020600048F21F51C5F2EB11A0FB01235A0964236A
:1020700002FB130206FB07F3AE00B3FBF6F3181ADC
:102080004FEA88031044322202EB0010A0FB010249
:10209000F02000EA521009FB07F2B2FBF3F2A2FBB8
:1020A00001126FF00F0101EA520100EB0108FFF786
:1020B00039F8616878438900B0FBF1F6FFF732F830
:1020C000616878430F2204238900B0FBF1F0311AD4
:1020D00048F21F57C5F2EB17A0FB07656E09642590
:1020E00006FB1500084498403230A0FB070102EAC5
:1020F0005110216840EA0800886001B0BDE8F08313
:10210000FEE7000092B0FEF7BBFE43F63007002664
:1021100047F200084FF0020A01250B96CDE9096647
:10212000CDE907660096C4F20207C4F200083869D8
:1021300040F080503861386900F08050009000987D
:102140000096D8F8000040F48040C8F80000D8F8A5
:10215000000000F4804000900098072011900420B7
:10216000109032200F900820CDE90D601020CDF89E
:1021700030A00A9006A80995CDF818A0FFF730F80E
:102180004FF4A050002104904FF4C05003900F2052
:10219000CDE901A600906846FEF71AFF0A96009660
:1021A00008F5CE344FF4805100224FF4805938683E
:1021B00040F080003860386800F08000009000989F
:1021C0000096386840F001003860386800F001007F
:1021D000009000980096386840F008003860386831
:1021E00000F00800009000982046FEF72FFE032024
:1021F00006A9CDE908502046CDE90695FEF74AFD2F
:10220000069600210022386840F480003860386863
:1022100000F48000069006980696386840F4001096
:102220003860386800F40010069006981020FEF719
:1022300091FE1020FEF77EFE382000210022FEF7DE
:1022400089FE3820FEF776FE40F21814012108F5C9
:102250003040C2F20004C0F60071E66284F82060EB
:102260002576A16284F83050C4F81CA0C4E90006A9
:102270002046C4E90266C4E904550996FEF75CF9F4
:102280000896CDE9065506AD20462946FEF76CF8BE
:1022900020462946CDE9066AFEF766F840F260203E
:1022A00044F200430C214FF4E132C2F20000C4F2C8
:1022B0000003C0E90032C0E90266C0E90461C0E978
:1022C0000666FFF765FB40F2202542F20F704FF4DF
:1022D0001C7108F510420996CDE90766C2F20005A7
:1022E000C5E90021C5E902602846C5E90466AE617A
:1022F000FFF732F906A92846CDF81890FFF77CF9C8
:1023000069462846CDE90066FFF704F940F24E0120
:1023100020463222C2F20001FEF712FA2846FFF7E9
:102320005BF900BFFEE700000FB41CB502460020B9
:1023300007AC00290BD0491ECDE90021054B6A46A8
:102340002146069800F018F8009A002111701CBC74
:102350005DF814FBBB26000802E008C8121F08C184
:10236000002AFAD170477047002001E001C1121F16
:10237000002AFBD1704700002DE9FF4F8BB0884643
:102380000546002606E025280BD0DDE90D12904712
:102390006D1C761C28780028F5D10FB03046BDE8BA
:1023A000F08F0024A146A2460122AE4900E004437A
:1023B00015F8013F203B02FA03F00842F7D12878D4
:1023C0002A2810D06FF02F022878A0F130010929B7
:1023D00015D809EB890102EB410144F0020400EB3E
:1023E00001096D1CF0E758F8041B5FEA010903D5E9
:1023F00044F40054C9F1000944F002046D1C28782B
:102400002E2817D115F8010F44F004042A280ED005
:102410006FF02F022878A0F1300109290AD80AEBC1
:102420008A0102EB410100EB010A6D1CF2E758F84A
:1024300004AB6D1C28786C280FD006DC4C2817D014
:1024400068280DD06A2814D104E0742810D07A28A6
:102450000FD10DE044F400140AE044F4801401E0CC
:1024600044F440146978814202D104F580146D1C53
:102470006D1C2878692865D006DC00288DD063287B
:1024800027D0642806D15DE06E2808D073282AD0B2
:10249000752877D0DDE90D129047761CE0E0C4F393
:1024A0000250022809D003280DD0D8F800100428C3
:1024B0000DD00E6008F10408D2E0D8F80010F21731
:1024C000C1E90062F6E7D8F800100E80F2E70E705E
:1024D000F0E718F8041B8DF8001000208DF80100BB
:1024E000EB46012003E058F804BB4FF0FF306107D2
:1024F0004FF0000701D40AE07F1C57450DDA8742F0
:10250000FADB1BF807100029F6D106E07F1C874292
:10251000FCDB1BF807100029F8D1DDE90D23A9EB3E
:1025200007008146214600F0B1F83044C61904E0A6
:10253000DDE90D121BF8010B90477F1EF8D22146F2
:10254000484688E058F8040BC4F302514FF00A0BD8
:10255000032900D100B2042900D140B2002802DAD8
:1025600040422D2102E0210505D52B218DF82410B4
:10257000012104E006E0E10710D02021F6E708AFD2
:10258000089113E058F8040BC4F302514FF00A0B02
:10259000032900D180B2042900D1C0B20021EEE7A6
:1025A0005946FDF745FE303107F8011D0028F7D1E7
:1025B000ADEB070000F1200B600702D524F4803456
:1025C00001E04FF0010ADA4502DDAAEB0B0000E062
:1025D0000020824600EB0B0108980144A9EB0100A2
:1025E0000A90E00306D4DDE90D2321460A9800F0A5
:1025F0004DF806444FF0000908E009A911F8090058
:10260000DDE90D12904709F10109761C0899894509
:10261000F3DBE0030CD5DDE90D2321460A9800F039
:1026200035F8064404E0DDE90D1230209047761CB1
:10263000BAF10001AAF1010AF5DC05E0DDE90D12AD
:1026400017F8010B9047761CBBF10001ABF1010BB1
:10265000F4DC0A982146DDE90D2300F005F8064474
:102660006D1C97E6092801002DE9F041044600257C
:102670001E461746880404D405E039462020B0479A
:102680006D1C641EF9D52846BDE8F0812DE9F041A6
:10269000044600251E469046C80301D5302700E0B9
:1026A0002027880404D505E041463846B0476D1C14
:1026B000641EF9D52846BDE8F0814A68002A06D094
:1026C0000A68531C0B6010704868401E48607047D1
:1026D00000000000000000000102030406070809D2
:1026E0000000000001020304000610160006101688
:1026F0002C00256875000000182700080000002045
:1027000010000000582300082827000810000020AF
:102710009806000068230008010000001000000077
:082720000024F4000000000099
:040000050800018965
:00000001FF
